{
    "_format": "hh-sol-artifact-1",
    "contractName": "SimpleStorage",
    "sourceName": "contracts/SimpleStorage.sol",
    "abi": [
        {
            "inputs": [
                {
                    "internalType": "uint8",
                    "name": "_number",
                    "type": "uint8"
                },
                {
                    "internalType": "string",
                    "name": "_name",
                    "type": "string"
                }
            ],
            "name": "addPeople",
            "outputs": [],
            "stateMutability": "nonpayable",
            "type": "function"
        },
        {
            "inputs": [
                {
                    "internalType": "uint8",
                    "name": "_number",
                    "type": "uint8"
                },
                {
                    "internalType": "string",
                    "name": "_name",
                    "type": "string"
                }
            ],
            "name": "addPeople3",
            "outputs": [],
            "stateMutability": "nonpayable",
            "type": "function"
        },
        {
            "inputs": [
                {
                    "internalType": "uint8",
                    "name": "_id",
                    "type": "uint8"
                }
            ],
            "name": "getPeopleById",
            "outputs": [
                {
                    "components": [
                        {
                            "internalType": "uint8",
                            "name": "number",
                            "type": "uint8"
                        },
                        {
                            "internalType": "string",
                            "name": "name",
                            "type": "string"
                        }
                    ],
                    "internalType": "struct SimpleStorage.People",
                    "name": "",
                    "type": "tuple"
                }
            ],
            "stateMutability": "view",
            "type": "function"
        },
        {
            "inputs": [
                {
                    "internalType": "string",
                    "name": "_name",
                    "type": "string"
                }
            ],
            "name": "getPeopleByName",
            "outputs": [
                {
                    "components": [
                        {
                            "internalType": "uint8",
                            "name": "number",
                            "type": "uint8"
                        },
                        {
                            "internalType": "string",
                            "name": "name",
                            "type": "string"
                        }
                    ],
                    "internalType": "struct SimpleStorage.People",
                    "name": "",
                    "type": "tuple"
                }
            ],
            "stateMutability": "view",
            "type": "function"
        },
        {
            "inputs": [],
            "name": "retrieveNum",
            "outputs": [
                {
                    "internalType": "uint8",
                    "name": "",
                    "type": "uint8"
                }
            ],
            "stateMutability": "view",
            "type": "function"
        },
        {
            "inputs": [
                {
                    "internalType": "uint8",
                    "name": "_favoriteNum",
                    "type": "uint8"
                }
            ],
            "name": "store",
            "outputs": [],
            "stateMutability": "nonpayable",
            "type": "function"
        }
    ],
    "bytecode": "0x608060405260016000806101000a81548160ff0219169083151502179055506005600060016101000a81548160ff021916908360ff1602179055506040518060400160405280600481526020017f4649564500000000000000000000000000000000000000000000000000000000815250600190805190602001906200008792919062000115565b5073213e83fe665a7fefc8ef9ddb6f7483627f0471d0600260006101000a81548173ffffffffffffffffffffffffffffffffffffffff021916908373ffffffffffffffffffffffffffffffffffffffff1602179055507f63617400000000000000000000000000000000000000000000000000000000006003553480156200010e57600080fd5b506200022a565b8280546200012390620001f4565b90600052602060002090601f01602090048101928262000147576000855562000193565b82601f106200016257805160ff191683800117855562000193565b8280016001018555821562000193579182015b828111156200019257825182559160200191906001019062000175565b5b509050620001a29190620001a6565b5090565b5b80821115620001c1576000816000905550600101620001a7565b5090565b7f4e487b7100000000000000000000000000000000000000000000000000000000600052602260045260246000fd5b600060028204905060018216806200020d57607f821691505b60208210811415620002245762000223620001c5565b5b50919050565b610bf6806200023a6000396000f3fe608060405234801561001057600080fd5b50600436106100625760003560e01c806308c9ec7d146100675780633bc862c714610097578063920f3806146100b35780639791355a146100d1578063aeb212a3146100ed578063e1734fa914610109575b600080fd5b610081600480360381019061007c9190610678565b610139565b60405161008e919061078a565b60405180910390f35b6100b160048036038101906100ac9190610678565b610240565b005b6100bb61025e565b6040516100c891906107bb565b60405180910390f35b6100eb60048036038101906100e6919061083b565b610274565b005b610107600480360381019061010291906109cb565b6103fd565b005b610123600480360381019061011e9190610a27565b610484565b604051610130919061078a565b60405180910390f35b61014161056b565b6004805490508260ff16111561015a57610159610a70565b5b60048260ff168154811061017157610170610a9f565b5b90600052602060002090600202016040518060400160405290816000820160009054906101000a900460ff1660ff1660ff1681526020016001820180546101b790610afd565b80601f01602080910402602001604051908101604052809291908181526020018280546101e390610afd565b80156102305780601f1061020557610100808354040283529160200191610230565b820191906000526020600020905b81548152906001019060200180831161021357829003601f168201915b5050505050815250509050919050565b80600060016101000a81548160ff021916908360ff16021790555050565b60008060019054906101000a900460ff16905090565b600460405180604001604052808560ff16815260200184848080601f016020809104026020016040519081016040528093929190818152602001838380828437600081840152601f19601f82011690508083019250505050505050815250908060018154018082558091505060019003906000526020600020906002020160009091909190915060008201518160000160006101000a81548160ff021916908360ff1602179055506020820151816001019080519060200190610338929190610588565b50505060405180604001604052808460ff16815260200183838080601f016020809104026020016040519081016040528093929190818152602001838380828437600081840152601f19601f82011690508083019250505050505050815250600583836040516103a9929190610b5f565b908152602001604051809103902060008201518160000160006101000a81548160ff021916908360ff16021790555060208201518160010190805190602001906103f4929190610588565b50905050505050565b600460405180604001604052808460ff16815260200183815250908060018154018082558091505060019003906000526020600020906002020160009091909190915060008201518160000160006101000a81548160ff021916908360ff160217905550602082015181600101908051906020019061047d929190610588565b5050505050565b61048c61056b565b60058260405161049c9190610ba9565b90815260200160405180910390206040518060400160405290816000820160009054906101000a900460ff1660ff1660ff1681526020016001820180546104e290610afd565b80601f016020809104026020016040519081016040528092919081815260200182805461050e90610afd565b801561055b5780601f106105305761010080835404028352916020019161055b565b820191906000526020600020905b81548152906001019060200180831161053e57829003601f168201915b5050505050815250509050919050565b6040518060400160405280600060ff168152602001606081525090565b82805461059490610afd565b90600052602060002090601f0160209004810192826105b657600085556105fd565b82601f106105cf57805160ff19168380011785556105fd565b828001600101855582156105fd579182015b828111156105fc5782518255916020019190600101906105e1565b5b50905061060a919061060e565b5090565b5b8082111561062757600081600090555060010161060f565b5090565b6000604051905090565b600080fd5b600080fd5b600060ff82169050919050565b6106558161063f565b811461066057600080fd5b50565b6000813590506106728161064c565b92915050565b60006020828403121561068e5761068d610635565b5b600061069c84828501610663565b91505092915050565b6106ae8161063f565b82525050565b600081519050919050565b600082825260208201905092915050565b60005b838110156106ee5780820151818401526020810190506106d3565b838111156106fd576000848401525b50505050565b6000601f19601f8301169050919050565b600061071f826106b4565b61072981856106bf565b93506107398185602086016106d0565b61074281610703565b840191505092915050565b600060408301600083015161076560008601826106a5565b506020830151848203602086015261077d8282610714565b9150508091505092915050565b600060208201905081810360008301526107a4818461074d565b905092915050565b6107b58161063f565b82525050565b60006020820190506107d060008301846107ac565b92915050565b600080fd5b600080fd5b600080fd5b60008083601f8401126107fb576107fa6107d6565b5b8235905067ffffffffffffffff811115610818576108176107db565b5b602083019150836001820283011115610834576108336107e0565b5b9250929050565b60008060006040848603121561085457610853610635565b5b600061086286828701610663565b935050602084013567ffffffffffffffff8111156108835761088261063a565b5b61088f868287016107e5565b92509250509250925092565b600080fd5b7f4e487b7100000000000000000000000000000000000000000000000000000000600052604160045260246000fd5b6108d882610703565b810181811067ffffffffffffffff821117156108f7576108f66108a0565b5b80604052505050565b600061090a61062b565b905061091682826108cf565b919050565b600067ffffffffffffffff821115610936576109356108a0565b5b61093f82610703565b9050602081019050919050565b82818337600083830152505050565b600061096e6109698461091b565b610900565b90508281526020810184848401111561098a5761098961089b565b5b61099584828561094c565b509392505050565b600082601f8301126109b2576109b16107d6565b5b81356109c284826020860161095b565b91505092915050565b600080604083850312156109e2576109e1610635565b5b60006109f085828601610663565b925050602083013567ffffffffffffffff811115610a1157610a1061063a565b5b610a1d8582860161099d565b9150509250929050565b600060208284031215610a3d57610a3c610635565b5b600082013567ffffffffffffffff811115610a5b57610a5a61063a565b5b610a678482850161099d565b91505092915050565b7f4e487b7100000000000000000000000000000000000000000000000000000000600052600160045260246000fd5b7f4e487b7100000000000000000000000000000000000000000000000000000000600052603260045260246000fd5b7f4e487b7100000000000000000000000000000000000000000000000000000000600052602260045260246000fd5b60006002820490506001821680610b1557607f821691505b60208210811415610b2957610b28610ace565b5b50919050565b600081905092915050565b6000610b468385610b2f565b9350610b5383858461094c565b82840190509392505050565b6000610b6c828486610b3a565b91508190509392505050565b6000610b83826106b4565b610b8d8185610b2f565b9350610b9d8185602086016106d0565b80840191505092915050565b6000610bb58284610b78565b91508190509291505056fea2646970667358221220975828ef5550a4eecba1e40e00c96b26f69a98b8c1dfcaefd86f77379d26981964736f6c63430008090033",
    "linkReferences": {},
    "deployedLinkReferences": {}
}